:020000040800F2
:1000000090070020D5000008C52E0008572A0008D8
:1000100000000000000000000000000000000000E0
:10002000000000000000000000000000292F000870
:100030000000000000000000C72E00082B2F000861
:100040000501000800000000192F00080501000844
:1000500005010008050100085D050008050100080C
:100060000000000005010008050100080501000866
:100070000501000805010008000000000501000856
:100080000000000000000000000000000000000070
:100090000501000800000000000000000501000844
:1000A0000000000005010008000000000000000042
:1000B000B93500080501000800000000000000003C
:1000C0000348854600F056F900480047E538000827
:1000D000900700200C4880F308880C480168090E3E
:1000E0000B4A914205D10B480B4901600B480C4962
:1000F00001600C4880470C480047FEE7FEE7FEE73A
:10010000FEE7FEE7FEE70000900700200400000085
:100110001F000000341002400100000000000140F8
:1001200000000000B52F0008C100000830B50B46E4
:10013000014600202022012409E00D46D5409D42C1
:1001400005D31D469540491B254695404019154647
:10015000521E002DF1DC30BDF0B51FB40646002064
:1001600082B005464024019100901BE0019922468F
:100170000F46304600F08EF8049A059B801A99418C
:1001800010D310461946224600F074F8361A8F41F3
:100190000197224601200021009F00F06BF83818DB
:1001A0004D4100902046641E0028DFDC019B009832
:1001B0002946324607B0F0BD03460B439B0703D0E8
:1001C00009E008C9121F08C0042AFAD203E00B781C
:1001D0000370401C491C521EF9D27047D2B201E094
:1001E0000270401C491EFBD270470022F6E710B592
:1001F00013460A4604461946FFF7F0FF204610BD95
:10020000421C0178401C0029FBD1801A7047000075
:100210000EB505490291002100910A460B46019155
:1002200000F056F803B000BD3304000070B5CD0FE8
:100230004A0009030123090B1B0519430B4BED076A
:100240000024520D9A4201DA002070BD074B34336E
:100250009A4203DC9A1A00F01DF802E00449511892
:1002600088402C43F1D0404270BD0000FF030000E5
:10027000CDFBFFFF10B5202A04DB0146203A914058
:10028000002010BD914020239C1A0346E3401943EF
:10029000904010BD10B5202A04DB0846203AD0401B
:1002A000002110BD0B46D340D0402024A21A91401B
:1002B0000843194610BD10B5002B08DA0024401C75
:1002C000614192185B411A4301D14008400010BDC2
:1002D000F0B51FB482B005460C0003D0084603F009
:1002E00073F902E003F070F92030024600902146D5
:1002F0002846FFF7BFFF049B059A04460F461843A4
:100300001143084314D0184610431BD000984021D5
:100310000A1A18460599FFF7BDFF05460E46009AD2
:1003200005990498FFF7A6FF084305D0012004E0D3
:100330002046394607B0F0BD0020C11705430E43E3
:100340002C43374300990E986305401A7905E40A57
:1003500000220C43FD0A0A3002D500200146E9E7DD
:100360000105101969410C9C0D9D00196941FFF7A9
:10037000A2FFDFE7064C0125064E05E0E36807CC47
:100380002B430C3C98471034B442F7D3FFF79CFE44
:10039000004B0008204B000870B58C180578401CF5
:1003A0006B075B0F01D10378401C2A1106D102783C
:1003B000401C03E006780E70401C491C5B1EF9D1FE
:1003C0002B0705D40023521E0DD40B70491CFAE7ED
:1003D0000378401CCB1A921C03E01D780D70491C59
:1003E0005B1C521EF9D5A142D8D3002070BD70B558
:1003F000044600688168490720D5816810264907AE
:10040000002905DA8168890702D481683143816057
:1004100000F012FD05460DE000F00EFD401B0A281D
:1004200008D9606D30436065A06D01210843A06567
:10043000084670BD206880684007EDD4002070BD7C
:10044000F8B50446006881688907890F012925D11C
:100450000168C90722D081680522114010250126B4
:1004600001290FD181680222114381602168032094
:10047000086000F0E1FC07460CE000F0DDFCC01B6A
:100480000A2807D9606D28436065A06D3043A065D8
:100490000120F8BD20688068C007EED10020F8BDBB
:1004A000F8B50446006881688907890F012902D1DF
:1004B0000168C90729D18168154A10261140012514
:1004C000002915D1816829438160134811490068CA
:1004D000FFF72CFE00E0401E00900028FBD100F04A
:1004E000ABFC07460CE000F0A7FCC01B0A2807D9AC
:1004F000606D30436065A06D2843A0650120F8BDA4
:1005000020680068C043C007EDD10020F8BD00009E
:100510001700008040420F006001002005480021C4
:10052000054A818289B2491C89B281829142F9D3FC
:100530007047000040000020520E000005480021D6
:10054000054A818289B2491C89B281829142F9D3DC
:100550007047000040000020204E000010B5082029
:1005600000F08EFB10BD00007CB50446002000901A
:100570000190012000030D46002C02D0012C05D172
:1005800001E0012100E017490091019069461648F9
:1005900000F0AEF8144800F057FA0A21124800F0B3
:1005A000F3F9114800F0DEF8800505D5002C03D1E1
:1005B0000D4800F0D9F828600B4800F045FA0A21F0
:1005C000094800F0E1F9084800F0CCF8800505D5AD
:1005D000012C03D1044800F0C7F82860024800F05D
:1005E00061FA7CBD100000106401002038B505469A
:1005F00000200446009069462846FFF7B5FF0D49E4
:100600000D48002D01D0012D11D1007C002804D00F
:1006100001280CD1094A009801E0094A009850438A
:10062000FFF784FDFFF7F4FDFFF700FE04462046C8
:1006300038BD0000FF0F0000200000200E0B00005E
:100640002A0C0000F8B5054604464035287C0026F3
:10065000012808D001202874206881688907890F43
:1006600001290ED101E00220F8BD0168C90708D0B8
:10067000606D202108436065012600202874304603
:10068000F8BD616DFF220132914302221143616581
:10069000C1688907890F0091C16889088900C16014
:1006A0002068816892071143816000F0C5FB07460E
:1006B0000EE000F0C1FBC01B0A2809D9606D0221C1
:1006C0008843102108436065002028740120F8BD8C
:1006D000206880680028ECDB2068C168009A11431C
:1006E000C160606D80088000401C6065C5E7000047
:1006F000F0B502464032137C012B0ED00123137457
:1007000003689C6865070024002D08DA416D2023EA
:100710001943416514740120F0BD0220F0BD0F4F54
:100720004E68BD05BE420E489E6A0F6809D07F0321
:100730007F0B3E439E62096889030CD5816829437B
:1007400008E07F037F0BBE439E620968890302D5E0
:100750008168A943816014740020F0BD011000007D
:1007600000270140406D70470068006C7047000032
:1007700070B5040006D0606D26460025403600287E
:1007800002D006E0012070BDA5653574204600F05A
:10079000D3F8606DC00603D421688868400705D58A
:1007A000606D1021084360653574EBE7606DFF22D2
:1007B0000132904302221043606588688207920FDD
:1007C0005B48012A02D10A68D2072BD10323626851
:1007D0009B079A4205D05B429A4202D05B009A4244
:1007E00009D10A69920092080A6121680A6963685E
:1007F0001A430A610CE00A69920092080A61816852
:100800000F22920491438160816862681143816084
:100810002168CA6818239A43CA602168CA68A36815
:100820001A43CA608168012252069143816081683F
:10083000A28E52061143816020688168C90004D4E9
:10084000816801221207114381602068C168394A1A
:100850001140C1602069E168022825D000200143D1
:10086000204620300278037B52035B001A43114379
:10087000226B1143A26992031143E269D20311432F
:100880002268D3681943D160616A0A46FF3AC23AC6
:1008900005D0A26A11432268D3681943D160427817
:1008A0000121012A02D00BE00420D8E700780028BB
:1008B00023D0606D202210436065A06D0843A065C1
:1008C000E06B012820681FD00169C90703D00169C6
:1008D00049084900016120684169C908C9004161AE
:1008E00020684169A26B11434161A565606D800874
:1008F0008000401C6065002070BD2068C268012334
:100900001B041A43C260DBE70269FF239B009A4382
:10091000026120680269236CA66C1A43636C33433E
:100920001A430261206802690A430261D3E70000AA
:10093000002701401902FEFF10B586B004461421BD
:100940006846FFF752FC0E492068884216D10D48D0
:10095000416B421511434163C16A01221143C162D7
:10096000C06A694610400590112000900320019054
:10097000002002900520000700F08EF906B010BD9F
:100980000024014000100240F8B5044640692546A5
:1009900040350E4608280BD02068C068C00709D033
:1009A000606D202108436065002028740120F8BD97
:1009B000082700E00C2700F03FFA009011E0701CBF
:1009C0000FD0002E05D000F037FA0099401AB0423F
:1009D00007D9606D04210843606500202874032056
:1009E000F8BD206800683842E9D0606D01214902F5
:1009F000084360652068C16809058A0F0C21002A38
:100A00001BD12022125D002A17D10268120714D5CB
:100A1000826853070122002B08DB43688B43436045
:100A2000606D130298431043606506E0606D2023FB
:100A300018436065A06D1043A065A069002801D12E
:100A4000206801600020F8BD70B5044621680020D0
:100A50008968490721D425464035297C01291CD0C5
:100A600001212974E169012904D02046FFF718FD0E
:100A7000002811D1616D0A4A1140FF220132114351
:100A800061650021A165297422681C21116021681B
:100A90008A6804231A438A6070BD022070BD00007A
:100AA000FEF1FFFF70B5054604464035287C01285D
:100AB00007D001262E742046FFF799FC002802D0AB
:100AC0000CE0022070BD2046FFF7BAFC002805D1DB
:100AD000616DFF2201329143314361650021297428
:100AE00070BD30B5014620314A790023022A04D076
:100AF0000422C2630B71012030BD026814680E2508
:100B0000AC43146002681468640864001460446CA8
:100B10001C22144001221546006CA54045604A7114
:100B200018460B7130BD70B50024014620314A795A
:100B3000022A03D00421C163012418E0026813686B
:100B40000E25AB431360026813685B085B001360FB
:100B5000436C1C221340012215469D40036C5D60CE
:100B60004A7100220A71816B002900D08847204613
:100B700070BD0000F0B500225DE0012393401C46EB
:100B80000C4057D096082E4DB6007519AF68AC468C
:100B900095072E0F0F25B540AE463D4005273F0770
:100BA000B84201D1002714E0264FB84201D10127F5
:100BB0000FE0254FB84201D102270AE0234FB84287
:100BC00001D1032705E0224FB84201D1052700E0FB
:100BD0000627B740AF4212D11E4D2E68A6432E60A5
:100BE0006E68A6436E60AE68A643AE60EE68A6432C
:100BF000EE606546AD687446A5436446A560056829
:100C000056000324B44025430560D508AD002D18D7
:100C10002E6AAC465507EF0E0F25BD40AE43654624
:100C20002E62C568A543C56045689D4345608368DD
:100C3000A3438360521C0B46D3409ED1F0BD0000FD
:100C4000000001400004005000080050000C00505B
:100C5000001C00500004014010B5084918208861AC
:100C6000012205205102000700F0DFF803F072FEB8
:100C7000024901208039487010BD0000800000202A
:100C800010B504494A69024202D04861FFF7E4FF07
:100C900010BD000000040140FCB500230124A2E0C7
:100CA00027462A469F403A406FD04D68012D05D017
:100CB000022D03D0112D01D0122D16D185680326E7
:100CC000AC465D00AE46AE406546B543AC46CE6828
:100CD0007546AE4065462E43866046680D79BE4334
:100CE000ED06ED0F9D4035434560C6685F00032566
:100CF000BD40AE46AE4335468E68BE402E43C6600C
:100D00004E68022E01D0122E14D1DE08B60036181D
:100D10000196366A5D07B446EE0E0F25B540009683
:100D20006646AE43B4460D69009EB54066462E4306
:100D3000019D2E6206687546AE430D79AD07AD0F75
:100D4000BD40354305604D68ED004BD5294D6E6BB8
:100D500026436E639E08284DB6007519AC46AD68F3
:100D60009E07360F0F27B740BD4305273F07B84200
:100D700001D1002715E0214FB84201D1012710E031
:100D80001F4FB84202D102270BE02BE01D4FB842A3
:100D900001D1032705E01C4FB84201D1052700E02F
:100DA0000627B7402F436546AF60184D2E684F6841
:100DB0009643FF0300D516432E606E684F68964336
:100DC000BF0300D516436E60AE684F689643FF02BE
:100DD00000D51643AE60EE684F689643BF0200D55B
:100DE0001643EE605B1C0A681546DA4000D057E7F0
:100DF000FCBD000000100240000001400004005053
:100E000000080050000C0050001C0050000401407D
:100E10000069084000D001207047426913460B402A
:100E20001B0491430B4383617047002A01D0816109
:100E30007047816270470000014880687047000079
:100E40005401002070B5024640325378202B1CD14B
:100E50001378012B19D001231370242454700468D3
:100E600025689D432560046825681E03B5432560F9
:100E7000046825680D432560006801681943016016
:100E8000202050700020107070BD022070BD70B521
:100E9000024640325378202B1BD11378012B18D0F7
:100EA000012414702423537003681D68A5431D603A
:100EB00005682B680F263602B343090219432960DF
:100EC00000680168214301602020507000201070EC
:100ED00070BD022070BD000070B5040006D025462C
:100EE000403568780026002802D005E0012070BD5A
:100EF0002E70204600F05AF924206870206801689E
:100F00004908490001600F2160680906884321688B
:100F1000086121688A680120C00382438A60E16811
:100F20000129A16808D02122920211432268916010
:100F3000E168022902D005E00143F7E701212268B8
:100F4000C902516021684A680F4B1A434A60216800
:100F5000CA688243CA60616920690843A1690902BD
:100F600008432168C860216AE06908432168086075
:100F700020680168012211430160666420206870C6
:100F80002663AE70002070BD00800002FFB50546EC
:100F900004464035687881B0202878D12878012827
:100FA00075D001202870FFF747FF07460122009007
:100FB0001923D103204601F0ADFD00283CD12220A9
:100FC00068701020A8700026666403986062049818
:100FD00060856663618D2F48FF2903D9FF22228532
:100FE00000903BE0618D218500903DE02046029914
:100FF00001F07CFD16E001F0B5FD00281CD1206851
:10100000406A616A0870606A401C6062208D401E00
:1010100081B22185608D401E6085608D002801D0E1
:1010200000290CD0608D0A9900283A462046E2D16A
:1010300001F0D8FD00281CD0012005B0F0BD0097BC
:101040000022802120460A9B01F064FD0028F3D194
:10105000608DFF2805D9FF222285009601231B06FB
:10106000C4E7608D20850096208D0123C2B25B0607
:10107000BCE721682020C86121684A68064B1A40F5
:101080004A606870AE702E700020D6E7FFE702203D
:10109000D3E700000024008000E800FEFFB505460D
:1010A00004464035687881B0202878D12878012816
:1010B00075D001202870FFF7BFFE0746012200907F
:1010C0001923D103204601F025FD00283CD1212021
:1010D00068701020A8700026666403986062049807
:1010E00060856663618D2F48FF2903D9FF22228521
:1010F00000903BE0618D218500903DE02046029903
:1011000001F0F4FC16E001F093FD00281CD1606AA8
:10111000216800788862606A401C6062608D401EB1
:101120006085208D401E80B22085618D002901D010
:1011300000280CD0608D0A9900283A462046E2D15A
:1011400001F050FD00281CD0012005B0F0BD009733
:101150000022802120460A9B01F0DCFC0028F3D10C
:10116000608DFF2805D9FF222285009601231B06EA
:10117000C4E7608D20850096208D0123C2B25B06F6
:10118000BCE721682020C86121684A68064B1A40E4
:101190004A606870AE702E700020D6E7FFE702202C
:1011A000D3E700000020008000E800FE10B586B004
:1011B000044614216846FFF718F810492068884251
:1011C00019D10F4CE16A02200143E162E16A01405A
:1011D0000591C0200090122001210190032002916E
:1011E0000491039069460748FFF756FDA06B012163
:1011F00049050843A06306B010BD0000005400403C
:10120000001002400004005070B504000FD02168A7
:101210001348086021681348086003CC41602068C7
:10122000083C21688860FFF707FE054608E00120BA
:1012300070BDFFF701FE401B292801D9032070BDB6
:101240002068C0680028F4D120680269E1688A42F9
:1012500001D0016101E004490160002070BD00007F
:10126000CCCC000055550000AAAA00000068024935
:101270000160002070470000AAAA000002488168AF
:1012800002788918816070475401002010B5084821
:1012900000240168402211430160204600F00AF852
:1012A000002801D0012401E000F026F8204610BDFE
:1012B0000020024070B504460D4D7D202978C00005
:1012C000FEF734FF01460B480068FEF72FFF01F0E0
:1012D0006BF9002809D1042C07D200222146401EB8
:1012E00000F032F800206C6070BD012070BD00007D
:1012F00054010020600100200448416B0122114389
:101300004163816B02041143816370470010024006
:10131000002809DBC106C90E012088400349086086
:10132000BFF34F8FBFF36F8F7047000080E100E085
:10133000002805DBC106C90E01208840014908606C
:101340007047000000E100E010B502F079F910BD2F
:1013500002480168021511430160704700700040A7
:101360000248016842151143016070470070004057
:10137000F0B5154A1368154D54152D6A2340ED0735
:10138000ED0F002B04D0002D02D01668A643166086
:101390001668B608B600064316600D4807690426AD
:1013A0003743076101290DD040BF20BF20BF01692D
:1013B000B1430161002B04D0002D02D010682043FE
:1013C0001060F0BD30BFF2E7007000400000014047
:1013D00000ED00E0F8B50446007800274E4D800689
:1013E00071D54D4E403EB06BC00004D4B06BA90522
:1013F0000843B063012749480168C90511D4016851
:10140000821511430160FFF717FD009005E0FFF71B
:1014100013FD0099401A642837D840480068C00579
:10142000F5D532680321090560680A400140914200
:1014300008D08103890F032904D13168890301D5BC
:101440000120F8BD2A69032109040A4022D008407E
:1014500090421FD0207880061CD528692A698843CD
:101460000121C9040A432A612A698A432A61286141
:10147000C0050FD5FFF7E0FC009008E0FFF7DCFCAB
:101480000099411A2648814201D90320F8BD2869F4
:101490008005F3D561688803800F032805D1326881
:1014A0000005824301400A433260286903226168D3
:1014B0001204114008432861002F04D0B16B0120B1
:1014C00000078143B1632078800705D5E8680C21C7
:1014D0008843A1680843E8602078400706D5E8689B
:1014E000032189028843E1680843E8602078000707
:1014F00006D5E86803210903884321690843E860A9
:101500002078000606D5E8680321890488436169CC
:101510000843E8600020F8BD401002400070004021
:1015200088130000F8B50E46050038D05E48006804
:10153000C007C00FB04214D25B4C20684008400086
:1015400030432060FFF778FC074605E0FFF774FCA6
:10155000C11B564881427AD82068C007C00FB042EC
:10156000F4D12878524C800705D5E068F0218843F3
:10157000A9680843E0602878C00752D0686802284C
:1015800006D0032807D0216801280AD0890504E085
:101590002168890301E021688901002903DB01201A
:1015A000F8BD4907F9E7E168890889000143E1606E
:1015B000FFF742FC0746686802280AD0032814D0C7
:1015C00001281ED029E0FFF737FCC11B37488142B4
:1015D0003DD8E0680007800F0228F4D121E0FFF732
:1015E0002BFCC11B3148814231D8E0680007800FD5
:1015F0000328F4D115E0FFF71FFCC11B2B488142E3
:1016000025D8E0680007800F0128F4D109E0FFF732
:1016100013FCC11B2548814219D8E0680007800FE0
:10162000F5D121480168C907C90FB14217D901682E
:101630004908490031430160FFF7FEFB074608E017
:1016400005E0FFF7F9FBC11B1848814201D90320CF
:10165000F8BD15480068C007C00FB042F1D1287826
:10166000400706D5E068072109028843E968084376
:10167000E0602878000707D5E0680721C9028843A1
:101680002969C9000843E06000F03AF8E168094AB6
:101690000906090F515CC8400749086007480068FF
:1016A000FFF708FEF8BD000000200240881300008C
:1016B00000100240C84A00086001002058010020C4
:1016C000044805490068C968044A4905490F515C46
:1016D000C84070476001002000100240E14A000845
:1016E000044805490068C968044A8904490F515CE7
:1016F000C84070476001002000100240E14A000825
:1017000070B51A4AD3681A490C2018408D00042875
:101710000CD04E00082810D00C2810D050680004BF
:10172000410F0120C003491C884070BD1068C006ED
:1017300001D5084670BD284670BD304670BD980280
:101740000C4C000F205C1B029C0FD368641CDB0355
:1017500001D5314603E01268D20600D4294601F0D3
:101760004AFF22460023FEF7F7FC70BD001002403E
:1017700000093D00D84A0008FEB505007ED0F74CB0
:10178000E7680C20E668074001200004064028783E
:10179000C00747D0082F05D00C2F0AD10120000424
:1017A000864206D1206880033CD568680028E5D0D1
:1017B00038E0012069680004814203D121680143B7
:1017C000216011E0052301221B0492049942216843
:1017D00002D111432160F1E781432160216801407A
:1017E0000091206890432060686800280DD0FFF7C2
:1017F00023FB009005E0FFF71FFB0099401A6428C7
:101800007ED820688003F6D50CE0FFF715FB00902A
:1018100005E0FFF711FB0099401A6428F0D8206812
:101820008003F6D4287880075DD5E868810604D562
:10183000226820210A43226088430923042F0DD007
:101840000C2F01D1002E09D000283CD021689943EB
:1018500001432160FFF7F0FA064628E021684907B6
:1018600001D500288AD061681F22120291432A699B
:101870001202114361602168994300E091E1014344
:101880002160FFF73DFFE16809060A0FB449895C52
:10189000C840B4490860B4480068FFF70BFD002851
:1018A00074D120E0FFF7C8FA801B0228A8D820686E
:1018B0004007F7D560681F2109028843296909029A
:1018C000084360600FE02068400840002060FFF798
:1018D000B3FA064604E0FFF7AFFA801B02288FD860
:1018E00020684007F7D42878C00661D5002F0DD0B6
:1018F000A86900284BD02068FF210131084300E08F
:10190000C6E02060FFF798FA06462DE020688005C3
:1019100002D5A8690028A5D060680721490388433B
:10192000296A084360606068297F0002000A09068E
:1019300008436060286A410B0120C003491C8840AD
:10194000E16809060A0F8649895CC8408549086034
:1019500085480068FFF7AEFC002817D128E0FFF7A4
:101960006BFA801B0228A1D820688005F7D5606833
:10197000072149038843296A084360606068297F1A
:101980000002000A09060843606011E0E1E02168F6
:10199000FF20013081432160FFF74EFA064604E044
:1019A000FFF74AFA801B022872D820688005F7D416
:1019B00028786E4E000724D568690028306910D059
:1019C000012108433061FFF737FA009005E0FFF787
:1019D00033FA0099401A02285AD830698007F6D5A0
:1019E0000FE0400840003061FFF726FA009005E064
:1019F000FFF722FA0099401A022849D83069800777
:101A0000F6D42878400765D500200290A06BC0006E
:101A100006D4A06B012109070843A06301200290AE
:101A200053480168C90511D401688215114301604A
:101A3000FFF702FA009005E0FFF7FEF90099401A5F
:101A4000642825D84A480068C005F5D5FF20AA6853
:101A50000130824203D131690143316111E001213A
:101A60008902002A07D005231B029A4203D132695A
:101A70000A433261EFE73269824332613069884359
:101A80003061A86800280FD0FFF7D6F9009007E072
:101A90005EE0FFF7D1F90099411A3648814257D8E4
:101AA00030698005F5D50DE0FFF7C6F9009006E036
:101AB000FFF7C2F90099411A2E48814248D830698F
:101AC0008005F5D40298002804D0A06B01210907F5
:101AD0008843A063686A002865D00C2F4CD001268B
:101AE00036060228206805D0B0432060FFF7A4F92D
:101AF00005462FE0B0432060FFF79EF9074604E05B
:101B0000FFF79AF9C01B022822D820688001F7D479
:101B1000E96AA86AE2680843296BFD231B049A431B
:101B200011430843E060206830432060FFF784F9E8
:101B3000054604E0FFF780F9401B022808D820681A
:101B40008001F7D52FE0FFF777F9401B022801D974
:101B50000320FEBD20688001F5D424E0001002407F
:101B6000C84A0008600100205801002040100240CF
:101B700000700040881300000128EAD0E0680121CD
:101B80000904AA6A014091420BD10F218904EA6A33
:101B90000140914205D1032189050840296B884203
:101BA00001D00120FEBD0020FEBD0000F7B50546B6
:101BB00004462035287882B0012814D001202870EE
:101BC000022068702168CA20486221685320486258
:101BD0002068806800264005FF27002812DAFFF7FA
:101BE0002BF900900AE0022005B0F0BDFFF724F9C0
:101BF0000099411A7D20C00081421CD82068C0682D
:101C00004007F3D4206881680122920291438160E9
:101C10002068C16880221140204A8918C160FFF7FE
:101C20000BF900900DE0FFF707F90099411A7D20AC
:101C3000C000814205D920684762032068702E7079
:101C4000D2E72068C0684007EDD521680398486155
:101C500020688168C908C900816020688168049A89
:101C6000114381600E480268012109050A430260A0
:101C700082680A43826020688168012292031143CE
:101C80008160206881681211114381602068476279
:101C9000012068702E700020A6E700007FFBFFFF88
:101CA00000040140F8B5FA48002604462546C17DE7
:101CB0004035203400290AD0012914D00746803746
:101CC000B869002872D0B869401EB86175E0A07C80
:101CD000062801D8401CA074C0B2022801D1E889AE
:101CE0002882EE81F8BDEA4F787D002802D00122DB
:101CF0000221C8E2387E401CC0B23876F97E002945
:101D000016D00C2808D93E76E24F0122022138462F
:101D1000FFF78BF8012206E0DE4F00220221384651
:101D2000FFF783F8002220213846FFF77EF82DE0E8
:101D3000787E002808D001220221D648FFF775F8E6
:101D400001F0D8FC7E7603E00221D248FFF765F867
:101D5000B87E002802D001F013FDBE76E07C00289A
:101D600014D001229103CC48FFF75FF801F0C2FCC8
:101D7000BE8702F0E1F9C6488030C1688160012168
:101D800000228903C448FFF750F8E674A07C0028BD
:101D900006D0202806D02428A4D8401CA074F8BD62
:101DA000EE81FAE7E9892982F7E7FFE701210520BB
:101DB000002249020007FFF738F8A889002801D05F
:101DC000401EA881A88B401CA883E88B401C82B2CF
:101DD000AF48EA83816F491C8167C16F491CC167A5
:101DE000018F491C0187017C002905D0A378002BB5
:101DF00002D1AB885B1CAB80A548407C002805D095
:101E0000E378002B02D1EB885B1CEB80002905D125
:101E1000A178012902D12989491C2981002805D1ED
:101E2000E078012802D16889401C6881E1208001A6
:101E3000824209D91420B861012251028006FEF7BE
:101E4000F4FF02F087FDEE8391489449806F884249
:101E500014D90520012280210007FEF7E6FF8C48F7
:101E6000C179491CC9B2C171052907D3C6718667FA
:101E70000520002280210007FEF7D7FF84480127B4
:101E8000C16F80300068814216D98148417B0029AA
:101E900012D10773007A00280ED101F071FC7C4842
:101EA000803000697D214901884201D2277100E01C
:101EB00026717748C66706737548018F688D814221
:101EC0006FD97348417B00296BD1C772012202216F
:101ED0007048FEF7AAFF6E48808F401C81B26C48A4
:101EE0008187407B00287AD10B2978D36848007A13
:101EF000002874D1012291036748FEF796FF01F094
:101F0000F9FB634880304169416080388687002250
:101F100002216048FEF789FF5D48C67202F00CF9A5
:101F20005B488030C16881600121002289035A48E2
:101F3000FEF77BFF564880304168E88D81420CD324
:101F400000280AD0524807742E81A888A98D88429B
:101F500014D9A07800280ED00FE04D480674AE804A
:101F60002889A98D884209D9A078002801D002F0DB
:101F7000C5FBA67002E002F0C1FBA77044488030A8
:101F80008168288E81420DD300280BD040484774C9
:101F90006E81E888A98D884215D9E07800280FD095
:101FA00010E01CE03A484674EE806889A98D8842AA
:101FB00009D9E078002801D002F0A0FBE67002E029
:101FC00002F09CFBE7703248017C427C114305D053
:101FD000698DF02902D9F039018700E006872C4885
:101FE000007D00281DD008212A48FEF711FF002897
:101FF00017D00620FFF78CF90123294A3F21A6209C
:1020000001F004FC26480078E0730620FFF790F901
:10201000607C002805D0E07B00281D481FD0067595
:10202000C6741B48407800280AD008211948FEF7DA
:10203000EFFE002804D002F0CBF815484670077573
:1020400002F05CF8052020210007FEF7E1FEA073F6
:10205000A17D002913D0002810D0A6730FE0C17C09
:10206000491CC9B2C1740329DBD9BFF34F8F0E4994
:102070000C48C860BFF34F8F00BFFDE7A773A0797E
:102080000028A07B12D0002828D066722CE0000027
:1020900000000020000400500008005000D4490057
:1020A000F60200200400FA0500ED00E0002806D04A
:1020B000607A401CC0B26072032802D044E06672AD
:1020C00042E0A7716672EE82288B401C0004000C6F
:1020D000288339D16079401C607135E0607A401CFA
:1020E000C0B26072032812D0E88A6949884201D2DE
:1020F000401CE882E98C80B2884200D92770A98C04
:10210000884221D96348C07F002819D01AE061486D
:10211000C07F002801D002F0F1FAA6715D48667216
:10212000C677E98AA88C81420ED2207B5A4A4300A6
:10213000401CC0B2D1522073142805D1267303E08D
:1021400002F0DCFA5348C777E079002808D0052070
:1021500040210007FEF75CFE002815D0A67219E0AA
:10216000052040210007FEF753FE002806D0A07A84
:10217000401CC0B2A072032802D025E0A67223E062
:10218000E771A6726E831FE0A07A401CC0B2A072F5
:1021900003280DD0688B3E49884201D2401C6883D9
:1021A000298D80B288420FD96078002809D00AE0D2
:1021B0006078002801D002F0A1FAE671A67266707C
:1021C00002E002F09BFA6770207A01218902002860
:1021D000324804D0FEF71CFE00280CD012E0FEF7B7
:1021E00017FE00280ED0E07A401CC0B2E07203282F
:1021F00009D1277206E0E07A401CC0B2E0720328E1
:1022000016D000E0E67201F071FF0021224A084674
:102210004300D35A8B4200D91946401CC0B214283F
:10222000F6D388081B4F6886B87A012802D00FE0E1
:102230002672E7E7BE72788F002809D0012220219C
:102240001748FEF7F2FD788F68828C20607502E0F7
:10225000607D002802D0C0B2401E6075688A0028E8
:1022600002D0401E688204E0002220210C48FEF7C4
:10227000DCFD0121C9030948FEF7CAFD002800D092
:102280008DE5002220210648FEF7CFFDF8BD0000B5
:10229000E8FD000000000020360300200000005090
:1022A0000004005010B504460068C068400509D518
:1022B0002046FFF7F7FC2068C16880221140054ADC
:1022C0008918C160012004490005486101202034BB
:1022D000607010BD7FFBFFFF00040140F8B50400F3
:1022E00050D0254620356878002803D12870204634
:1022F00000F052F8022068702168CA204862216804
:1023000053204862204600F0EBFDFF2604270028FA
:10231000206802D046626F7034E081681D4A114027
:102320008160216888686268A369104322691A4342
:10233000104388602168E06808612068016922898B
:102340001204114301612068C16880229143C16079
:102350002068C16C89088900C164E1696069014332
:102360002068C26C1143C1642068806880060BD469
:10237000204600F0FFF8002806D0206846626F7003
:10238000002028700120F8BD206846620120687096
:102390000020F8BDBFFF8FFF10B5006808498842D4
:1023A0000DD1084801690122920411430161002204
:1023B00011460220FEF7C8FF0220FEF7B9FF10BD4C
:1023C0000028004040100240F8B50546044620357C
:1023D00028780B4601280FD0012028700220687051
:1023E000002A0BD0D8789E780004064358780978E4
:1023F00000024903084317E00220F8BD5878C106DF
:1024000003D5EF2108400A305870D87800F05CFD01
:102410000604587800F058FD00020643987800F052
:1024200053FD06431878400306432168CA204862DA
:10243000216853204862204600F052FD0027002802
:1024400011D111480640206846602068C16880228A
:102450009143C1602068806880060CD4204600F05B
:1024600089F8002807D02168FF204862042068709E
:102470002F700120F8BD2168FF204862012068709C
:102480002F700020F8BD00003FFFFF00F8B50646A2
:102490000446203630780D46012822D001203070C5
:1024A00002207070206800278068002A1BD0400638
:1024B00000D4EF702978A878090408436978EA788D
:1024C000090212041143084300902168CA2048629F
:1024D000216853204862204600F002FD002837D1D1
:1024E00016E00220F8BD400600D4EF70287800F016
:1024F000EBFC0304687800F0E7FC00020343A878D3
:1025000000F0E2FC0343E878000403430093DCE7B7
:1025100017490098084021680860206881680122F6
:102520009204914381602969E868084321688A68B8
:10253000104388602068C16880229143C160206890
:10254000806880060CD4204600F014F8002807D0DC
:102550002168FF2048620420707037700120F8BDA8
:102560002168FF2048620120707037700020F8BD9C
:102570007F7F7F0070B504460068C168A022914348
:10258000C160FEF759FC7D260546F60006E0FEF721
:1025900053FC401BB04201D9032070BD2068C068C5
:1025A0008006F4D5002070BD094910B5401E884250
:1025B00001D9012010BD074C60610321081F01F003
:1025C0003FF80020A06107202061002010BD00001E
:1025D000FFFFFF0000E000E07047704770B50400A7
:1025E00019D02420A06720680168490849000160CB
:1025F00020680025056020684560206885602046C9
:1026000000F052F980200551A567E5672566603422
:102610002575002070BD012070BD7047F8B50268B7
:102620000446D06911689668814B05461D402023F9
:10263000002D6CD0F7077F4DFF0FBC460D402F4398
:1026400079D02546C7078035002F06D0CF0504D5A1
:10265000012717622A683A432A60820708D5F207E1
:1026600006D0276802223A622A6804273A432A6081
:10267000420708D5F20706D02668042232622A688B
:10268000022632432A6002070AD50A461A406646E5
:10269000324305D02668082232622E6816432E6027
:1026A000020508D54A0106D501222668D202326207
:1026B0002A681A432A602A68002A30D0800606D584
:1026C000880604D5616E002901D020468847286815
:1026D00021688968490602D42821084225D020466D
:1026E00000F012FD20688168490619D582684021F2
:1026F0008A438260206F002812D04F498163206F87
:10270000FEF711FA00280AD0206F816B06E08506DB
:1027100011D58D060FD5616E77E020468847F8BD4C
:102720002046FFF77AFFF8BD05E02046FFF775FF6A
:1027300000202860F7E7256E012D56D1C50654D537
:10274000CD0652D5102616622068816825464906B6
:10275000403500292ADA226F116849680904090CFA
:10276000E1D02F8B8F42DED9698311680968890611
:1027700017D40168320191430160206881684908DB
:102780004900816020688168402291438160E3674D
:102790000020206620680168B1430160206FFEF7C9
:1027A000A0F9288B698B401A81B21AE0298B6A8BB9
:1027B000891A6A8B89B2002AB5D00029B3D0026881
:1027C000FF252135AA430260206882685208520022
:1027D0008260E36700202066606620680268B2437A
:1027E00002602046FFF7F8FE9DE7C50208D5750296
:1027F00006D50120000510622046FFF7EEFE92E7A5
:10280000050605D50D0603D5A16E002985D18AE7F9
:10281000400688D5480686D5116820464024A14345
:10282000116083670021816600F014F97BE70000E6
:102830000F08000020010004F530000810B5040066
:1028400003D0A06F002802D007E0012010BD0021B6
:1028500074200155204600F03FF82420A06720682E
:102860000168490849000160204600F0DDFC0128AC
:10287000ECD0606A002802D0204600F0A3FB20685C
:1028800041680922D20291434160206881682A226E
:102890009143816020680168012211430160204654
:1028A00000F0F6FB10BD000010B500680849884232
:1028B0000DD10848816B01225204914381630520A8
:1028C0000C210007FEF756F91C20FEF721FD10BD74
:1028D000004400400010024010B586B004461421A8
:1028E0006846FDF782FC15492068884223D11448C8
:1028F000816B0122520411438163C16A0122114399
:10290000C162C06A6946104005900C200090022008
:1029100001900020029003200390042004900520E1
:102920000007FEF7B9F9002211461C20FEF70CFD46
:102930001C20FEF7FDFC06B010BD00000044004066
:102940000010024030B5C36F202B27D100290BD0D7
:10295000002A09D0012483682403A34206D1036915
:10296000002B03D1CB0701D0012030BD03466033DB
:102970001C7D012C12D001241C7500230366084C19
:102980000368A34207D05C68240204D51C680125B3
:10299000AD062C431C6000F035FD30BD022030BD7B
:1029A0000048004010B50B480B4A0446417B203CD0
:1029B00020781154401C20700748214601222D31F7
:1029C0009438FFF7BFFF2078322801D30020207011
:1029D00010BD000020000020C402002070B5836FED
:1029E000202B31D100290AD0002A08D08568DC01CB
:1029F000A54206D10369002B03D1CB0701D00120EA
:102A000070BD034660331E7D012E1DD001261E754C
:102A1000C164014640310A824A82002180228166D7
:102A2000115021228267A54202D10269002A09D0F1
:102A3000064A8266197500680168802211430160A8
:102A4000002070BD024AF4E7022070BDDD340008AA
:102A50009D3400087047FEE701688A69D2439207F7
:102A600001D400228A6200688169C943C90703D082
:102A7000816901221143816170470000F7B5044666
:102A800000680E468069C043C0062BD42027254627
:102A9000403520688069C043800612D5701CF8D08C
:102AA000FEF7CAF90299401AB04201D8002EF0D1BF
:102AB000606C384360646F700020A870287001203B
:102AC000FEBD21681020C8612068C7612046FFF75D
:102AD000C3FF20684168044A11404160606C0421D2
:102AE0000843E7E70020FEBD00E800FEF0B50668F9
:102AF000059C7568064F600D384385438805800D39
:102B0000110408431843204305437560F0BD0000DD
:102B1000FF63FF03F8B51D4617460E46044609E05D
:102B2000681C07D0FEF788F90699401AA8420BD80E
:102B3000002D09D020688169304688430FD00020DD
:102B4000B842EDD00020F8BD616C202001436164E3
:102B5000403460700020A07020700120F8BD01207A
:102B6000EEE70000F7B5002720260546044640356D
:102B700028E02046029A0199FFF780FF002801D043
:102B80000120FEBD20688069C043800611D4206802
:102B90008169C943490702D4218D002917D1C66133
:102BA000206841680E4A1140416067646E70AF70E2
:102BB00013E0FEF741F90299411A0198814208D8C1
:102BC000002806D020688069C0434007D1D4002087
:102BD000FEBD606C304360646E702F70D0E7000003
:102BE00000E800FE70B516460D4604460FE032467A
:102BF00029462046FFF742FF002801D0012070BD82
:102C0000FEF71AF9801BA84208D8002D06D02068CC
:102C10008069C0438006EAD4002070BD616C20202A
:102C200001436164403460700020A0702070E5E7CB
:102C300070B516460D46044611E032462946204638
:102C4000FFF71CFF002801D0012070BD681C06D0D2
:102C5000FEF7F2F8801BA84208D8002D06D02068A5
:102C60008069C0438007E8D4002070BD616C2020DB
:102C700001436164403460700020A0702070E3E77D
:102C80007CB5002118480091164A01910260C16389
:102C900001248160042304611205836342600246BB
:102CA000C16020321170FF255470C23545628162C7
:102CB00011730163816144634361C161FDF758FD94
:102CC00020030190694600940748FDF711FD07486D
:102CD000009069460448FDF70BFD00210248FDF70E
:102CE000B1FC7CBD002401406401002010000010F4
:102CF000F0B587B014216846FDF777FA3348C26A09
:102D000004210A43C262C26A0A400592C16A0125CF
:102D10002943C162C16A29400591C26A02210A435E
:102D2000C262C06A2A4F0840059005200022394639
:102D30000007FEF77AF8002233212648FEF775F8DF
:102D40000326B603002231462348FEF76EF803201F
:102D5000002401906946009602941F48FDF79CFFED
:102D60000520029469460007009701950394FDF73A
:102D700093FF1A48009005200194694602940007C9
:102D8000FDF78AFF33200090029469460195039471
:102D90001048FDF781FF029469460F48009601959F
:102DA0000394FDF779FF082000900D4801906946D3
:102DB00002950848FDF770FF002211460620FEF735
:102DC000C3FA0620FEF7B4FA07B0F0BD00100240C7
:102DD000821B0000000400500008005060840000C6
:102DE0000000211010B50D480B4901600021416021
:102DF00081600161416181610122C161C260016242
:102E0000FEF76AF800210548FEF71CF80021034888
:102E1000FEF73DF810BD000000540040C001002046
:102E200010B586B014216846FDF7DFF90024164975
:102E30001648059412C07C2101608460C460FF21A3
:102E400004612831446141600838FFF747FA684659
:102E50000470447084700394012269460B48049402
:102E6000FFF714FB01216846017541758175C47532
:102E70000A4605A90548FFF7A7FA002204490348B6
:102E8000FEF794FE06B010BD002800400C020020A2
:102E90004202000010B50A48084901604B21C901EF
:102EA000416000218160C16001618161C1610C22CA
:102EB000016242614162FFF7C1FC10BD0044004065
:102EC00030020020FEE770470022014602E00A3986
:102ED000C9B2521C0A29FAD21007000E08437047E3
:102EE00070B504460068C168490613D40021C9437F
:102EF000C160FDF7A1FF7D260546F60006E0FDF75F
:102F00009BFF401BB04201D9032070BD2068C06800
:102F10004006F4D5002070BD10B50248FFF7C2F995
:102F200010BD00000C020020704710B5FEF7A6F996
:102F300010BD000030B599B034216846FDF755F951
:102F400014210DA8FDF751F9182112A8FDF74DF92C
:102F5000174801680322D2029143C2148918016004
:102F60000A200090092003900024102009940125D4
:102F7000049005956846FEF7FFFB002801D072B665
:102F8000FEE70F200D90A0200F900E9510940021C9
:102F900011940DA8FEF7C6FA2A20129001204004D1
:102FA00013901494169412A8FEF714FA19B030BDB9
:102FB0000070004001200249C00688607047000090
:102FC00000ED00E010B5818CC90707D001684A68A0
:102FD00001235B049A43836A1A434A60818C890700
:102FE00007D501684A6801231B049A43C36A1A4340
:102FF0004A60818C490707D501684A6801239B0410
:103000009A43036B1A434A60818C090707D501680C
:103010004A680123DB039A43436B1A434A60818C5D
:10302000C90607D50268916801231B039943836B86
:1030300019439160818C890607D501688A6801234C
:103040005B039A43C36B1A438A60818C490612D58D
:1030500003685A6801210905046C8A4322435A60B7
:10306000026C8A4207D10268516803235B059943C9
:10307000436C19435160818C090607D501684A6881
:103080000123DB04806C9A4302434A6010BD0000B8
:10309000F8B50446002680300660FDF7CDFE0546F3
:1030A00020680068124F000709D501212B46002235
:1030B00049052046009700F02FFA00280DD120681E
:1030C000006840070BD501212B46002289052046C8
:1030D000009700F021FA002801D00320F8BD20203D
:1030E000A067E0672666603426750020F8BD000002
:1030F000FFFFFF0110B5806A0022014640314A837C
:103100004A82FFF78AFA10BD01680A68FF2321335B
:103110009A430A6001688A68520852008A60016E08
:10312000012904D101680A6810239A430A6020210A
:10313000C167002101664166704770B504464030A2
:10314000828BE36F2168222B04D088690822104308
:10315000886170BD496A636D11401980616D891C79
:103160006165418B491E4183418B0029F1D1216862
:103170000A68FF2321339A430A6021688A6852084B
:1031800052008A602021E16700256566216E0129D1
:1031900004D02046FFF706FC256670BD21680A684A
:1031A00010239A430A60018B2046FFF715FAF3E7D4
:1031B00070B504464030828BE36F2168222B04D027
:1031C000886908221043886170BD496A1140626DA8
:1031D0001170616D491C6165418B491E4183418BB2
:1031E0000029F1D121680A68FF2321339A430A603C
:1031F00021688A68520852008A602021E167002510
:103200006566216E012904D02046FFF7CBFB2566B9
:1032100070BD21680A6810239A430A60018B20461A
:10322000FFF7DAF9F3E70000F8B5044601688068B3
:103230002369E669184363690025334318436A4AE2
:103240000B686A4E334003430B60206841680323D8
:103250001B039943E368194341602168A0699142C7
:1032600001D0236A18438B680B263602B34303430D
:103270008B605F4923685F488B420AD1C0680C218C
:10328000084027D0042829D0082825D00C2811D19F
:103290000EE093420ED1C16803208002014019D094
:1032A00001208002091A19D0091A15D0814201D1D2
:1032B000082700E010274F494F48403986009342C5
:1032C00032D1002F0CD0022F0DD0042F10D0082F98
:1032D0007FD126E00027EEE70227ECE70427EAE7A4
:1032E000FEF7EEF906E00968C90605D4304603E0AA
:1032F000FEF706FA002872D0626851005118814228
:1033000067D81103814264D3010E060250080023DE
:1033100030185941FCF720FF03210902411A374AAE
:1033200055E00120C003E7E70122E369D20393429D
:103330002BD13B0000F077F90906090C4D114D4DDA
:103340004D274D00FEF7BCF909E0FEF7C9F906E08C
:103350000968C90605D4304603E0FEF7D1F9002814
:103360003DD0616840004A088018FCF7DFFE80B25B
:103370000146234A103991422BD8511C01400007C5
:10338000400F084329E01046EBE73B0000F04BF903
:103390000906090C2112212121232100FEF790F9B1
:1033A0000AE0FEF79DF907E00968C90606D4304631
:1033B00004E00EE0FEF7A4F9002810D061684A0886
:1033C0001018FCF7B3FE80B201460D4A1039914245
:1033D00003D9012503E01046F0E72168C86000200A
:1033E0006066A0662846F8BD00480040F369FFEF1C
:1033F000004400404010024000093D00FFFC0F0067
:10340000EFFF000070B54165014640310A834A83F1
:1034100000224266012483682403FF25A34204D1CD
:103420000369002B13D11A4B0AE07F26002B09D029
:1034300001252D07AB420CD10369002B05D03F239A
:103440008B8307E00369002B01D08E8302E08D831C
:1034500000E08A8380210A502221C16701688B68BD
:1034600001252B438B608168A14202D101690029AB
:103470000BD00849416674210A5400680168FF2294
:10348000213211430160002070BD0349F2E70000C2
:10349000FF010000B13100083B310008816F212994
:1034A00010D1014640314A8A002A0CD0C26C036810
:1034B0001288D205D20D9A62C26C921CC264488AEC
:1034C000401E4882704701680A6880239A430A6058
:1034D000006801684022114301607047816F212913
:1034E0000ED1014640314A8A002A0AD0C26C0368D4
:1034F00012789A62C26C521CC264488A401E48828A
:10350000704701680A6880239A430A60006801686E
:103510004022114301607047FFB581B005460F4658
:10352000044660350A9E39E0701C37D0FDF784FCF4
:103530000499401AB04222D8002E20D02068016899
:1035400049072BD5C069C043000527D40120216855
:10355000C002086220680168FF22A1329143016025
:10356000206881684908490081602020A067E067E1
:103570008034206000202875032005B0F0BD20684D
:103580000168FF22A13291430160206881684908E7
:10359000490081602020A067E067EBE72068C169EF
:1035A0003846884305D0002103988142BCD00020D2
:1035B000E3E70121F8E7000010B50248FFF72EF815
:1035C00010BD0000300200202021020C01D010218B
:1035D0001046020A01D010460839020901D01046EF
:1035E000091F820801D01046891E420801D0881E9A
:1035F0007047081A7047F8B5040C8BB2264682B2A1
:103600005E430D0C1046370C5843360480190021D8
:10361000794116466E43370C3604801979412646A7
:103620006E438919F8BD30B47446641E2578641C55
:10363000AB4200D21D46635D5B00E31830BC184707
:103640008307FF22DB0E9A408907090E9940002864
:1036500008DB830809489B001B181868904308433F
:10366000186070470007000F0838830804489B0063
:103670001B18D86990430843D861704700E400E004
:1036800000ED00E002E008C8121F08C1002AFAD1CC
:1036900070477047002001E001C1121F002AFBD1D2
:1036A00070470000F8B5124E074634460020203C13
:1036B0002546B074403517E0A07D002808D00520CD
:1036C00020210007FDF7A4FB00280DD000200AE010
:1036D000052020210007FDF79BFB002804D1E88985
:1036E000401CE8810120A075B07CB842E4D1F8BD4F
:1036F0002000002070B5002425460120FCF776FF4D
:103700006D1C0419EDB20A2DF7D31848007C00286F
:1037100002D0012806D00DE0204650214843FF2169
:10372000D73104E0204648214843FF218731FCF788
:10373000FDFC04460D4D60356C6128468038C07D27
:10374000022812D10A482946403960434988FCF7CB
:10375000EDFC084948430849FCF7E8FC0749884262
:1037600001D2081A00E00020686170BD200000202E
:10377000941100007617000010270000AF0B000026
:10378000F8B5012211461E48FDF74FFB1D4D0526D9
:10379000E87D3607022804D1012280213046FDF75A
:1037A00044FB00273846401CC0B23228FBD300241B
:1037B0000020FCF71BFF641CC719E4B2052CF7D3EB
:1037C00038463B2148433C21FCF7B0FC0D4C80348B
:1037D0002061E97D022907D10B4948432146403940
:1037E0000988FCF7A3FC2061002280213046FDF708
:1037F0001CFB002201210248FDF717FBF8BD000069
:1038000000040050000000206A130000F8B50546CF
:10381000174610480A0A027041707D2402461E466F
:103820002401FF38022329469F380094FDF736FC17
:10383000011E094803D0002242740846F8BD012148
:10384000417433463A46294604480094FDF79EFBEE
:10385000F8BD00005E03002020000020C001002011
:1038600038B51C460546134609480A0A02704170DD
:1038700022461946801CFCF79FFC7D200001A41CF9
:103880000090A3B2024A29460248FDF707FC38BD62
:103890005E030020C00100200EB5002069460870BC
:1038A00055224A700D228A700A22CA7008710521B9
:1038B000684600F00DF80EBD10B50446FCF7A0FCFC
:1038C00082B221460148FFF789F810BD300200207E
:1038D0000A4610B501460248FFF780F810BD000007
:1038E000300200201CB5FDF7D1FCFFF723FBFFF7EA
:1038F000FFF9FFF777FAFFF7CDFAFFF7C1F90122D9
:10390000E449E548FFF71EF801210520002249029D
:103910000007FDF78AFA0024FCF710FE641CE4B2ED
:10392000082CF9D300F0F6FAFCF7F8FDFCF7F6FDE9
:103930000122052554022D0721462846FDF775FA78
:10394000FCF7FCFD00F006FBFCF7F8FD0022214629
:103950002846FDF76AFAFCF7F1FD012221462846C8
:10396000FDF763FAFCF7EAFD0620FDF7D1FCCA4A31
:103970000123C6323021A620FFF748FFC64EC54CB2
:10398000C636307801252D3C55280AD00020A07479
:103990000620FDF7CDFCBF482D38807C002802D0E2
:1039A00005E0A574F4E701F03FF8FCF7C7FD00F06F
:1039B0000FFCFCF7B3FD0620FDF7AAFCB64A022374
:1039C000C6320C21A620FFF721FFB34CB14EC634FE
:1039D00020786178000201431336318301232246A7
:1039E0000521A620FFF712FF37462078203F787187
:1039F0000620FDF79DFCFCF791FD00F051FCFCF763
:103A00008DFD0620FDF784FC012322463E21A620E1
:103A1000FFF7FCFE207838740620FDF789FCFCF7E0
:103A20007DFD0620FDF774FC012322463B21A620E4
:103A3000FFF7ECFE20783446403CA0700620FDF7EE
:103A400077FCFCF76BFD0421684601700027477086
:103A50008570C7700B466A463946A620FFF700FFFF
:103A6000FCF75CFD8C4A0123C6323F21A620FFF7FC
:103A7000CDFE8948C6300078062812D087483F21FD
:103A800007704170062181707D20000100908248FE
:103A90000323824AA6217038FDF700FBFCF74EFD98
:103AA000E0E7FCF73BFD6846057147717D200001AA
:103AB00000907948022301AA90217038FDF7EEFAB0
:103AC000FCF72CFDE77500F019FBFFF7A9F900F0F2
:103AD0001FFE0420FFF7E6FD308A0A380C2850D874
:103AE000E57500F06BFE2220FFF7DCFDE08F318AE8
:103AF0004002FCF71BFB010A6A461170507002235A
:103B00003C21A620FFF7ACFEFCF708FD00F0EEFA22
:103B100000F01CFEA576FCF711FD5E4E53363069B1
:103B20005F4988427ED931695E4881427ED23069E0
:103B3000010A684601703169417002236A463821E2
:103B4000A620FFF78DFEFCF7E9FCFCF7F7FCFCF77D
:103B5000E5FCA576FCF7F2FC3769052001228021FF
:103B60000007FDF762F9FCF7D9FCA576FCF7E6FC47
:103B7000306987425CD93069381A2D285AD2657568
:103B8000FEE7444802212D38C1750024FCF7D6FC1D
:103B9000641CE4B2052CF9D301210520002249025E
:103BA0000007FDF742F90620FDF7C2FBFCF7C6FC53
:103BB000FCF7C4FC374C01202D3C20720146FDF778
:103BC000D7FB2046277280300068001FE067708DA9
:103BD0000A2801D90A3820870025FCF7AFFC6D1CA4
:103BE000EDB2142DF9D30025FCF7A8FC6D1CEDB245
:103BF000192DF9D300F0A4FB0025FCF79FFC6D1CE8
:103C0000EDB2142DF9D324487825B58126498430A6
:103C10000160062141602549C1608160FDF7F4FA29
:103C2000B08900E002E000280ED01DE06575FEE7D7
:103C30006575FEE701210846FDF79AFBE57601214F
:103C40000846FDF795FBFAE7E078002804D0401E0F
:103C5000E07000F075FB07E0B08B718C884203D9EF
:103C600000F06EFBB783B581E07A217B084301D178
:103C70000120207227722078002806D0401E1228CA
:103C800001D2FCF74BFC00F09DF903488430FDF7AE
:103C9000EDFAC5E72D000020300200205E03002071
:103CA000941100007C15000000300040FF0F000060
:103CB00010B527A0FFF700FEFCF730FC29A0FFF7A6
:103CC000FBFDFCF72BFC2BA0FFF7F6FDFCF726FC19
:103CD0002DA0FFF7F1FDFCF721FC34A0FFF7ECFD70
:103CE000FCF71CFC3EA0FFF7E7FDFCF717FC49A022
:103CF000FFF7E2FDFCF712FC4B488078012825D045
:103D00004AA0FFF7D9FDFCF709FC4CA0FFF7D4FD52
:103D1000FCF704FC4EA0FFF7CFFDFCF7FFFB51A022
:103D2000FFF7CAFDFCF7FAFB52A0FFF7C5FDFCF751
:103D3000F5FB55A0FFF7C0FDFCF7F0FB59A0FFF71E
:103D4000BBFDFCF7EBFBFCF7E9FB10BD5AA0D8E785
:103D50006D616320676574206465766575690D0A19
:103D6000000000006D616320676574207278320D79
:103D70000A0000006D6163207365742073796E63BF
:103D80002033340D0A0000006D61632073657420D8
:103D900061707065756920313132323333343435B6
:103DA000353636373738380D0A0000006D6163202C
:103DB000736574206E776B736B65792032323333A1
:103DC000343435353636373738383939323233339B
:103DD0003434353536363737383839390D0A00003E
:103DE0006D61632073657420617070736B657920F9
:103DF000333334343535363637373838393930306F
:103E0000333334343535363637373838393930305E
:103E10000D0A0000726164696F207365742063721B
:103E200020342F370D0A0000000000206D61632050
:103E300073657420647220310D0A00006D61632087
:103E40007365742070777269647820350D0A0000FC
:103E50006D61632073657420636C61737320630DFF
:103E60000A0000006D616320736574206172206F29
:103E70006E0D0A006D6163207365742061647220A9
:103E80006F66660D0A0000006D6163207365742023
:103E90007278322038203932333330303030300DC0
:103EA0000A0000006D61632073657420646E6374A2
:103EB0007220300D0A0000006D616320736574206C
:103EC000647220300D0A0000F8B505273F07002274
:103ED00002213846FCF7A9FF00260D4C7D25A6825D
:103EE000ED00A08A401C80B2A082A842F9D3FCF762
:103EF00025FB012202213846FCF797FFA682A08A03
:103F0000401C80B2A082A842F9D3FCF717FBF8BD91
:103F10004000002010B5FFF7D7FFFFF7BDFCFCF70E
:103F20000DFBFCF70BFB07A0FFF7C6FCFCF706FB3D
:103F3000FFF7BEFEFCF702FB00F042FBFCF7FEFAC7
:103F400010BD00006D616320726573756D650D0AAB
:103F500000000000F8B50020184C05462554401C10
:103F6000C0B21328FAD309202070A0727D26360132
:103F70001323124AAE2112480096FDF78FF8FCF782
:103F8000DDFA257065708820A07003230B4AAE21EE
:103F90000B480096FDF782F8FCF7D0FA25700D204B
:103FA00060700120A0700323044AAE2104480096EB
:103FB000FDF774F8FCF7C2FAF8BD00005E030020BC
:103FC000C0010020F8B500200123434E0090434972
:103FD00033751A4642A50C5C2D5CAC4202D0072812
:103FE00000D00022401CC0B20928F3D33A4C3275ED
:103FF000203C002A5BD001250020214665729C31BF
:10400000364B1B181F7B303F3B00FFF70CFB170D97
:104010000F121416181A1C1E202E2E2E2E2E2E2E87
:10402000222426282A2C2E00002300E001230B54F2
:104030001CE00223FBE70323F9E70423F7E705234A
:10404000F5E70623F3E70723F1E70823EFE7092362
:10405000EDE70A23EBE70B23E9E70C23E7E70D2362
:10406000E5E70E23E3E70F23E1E70025401CC0B29C
:104070000528C5D36572002D22D0707D002819D186
:10408000C8780303009818430B791B071B0D1843CE
:104090004B781B071B0E18438B781B071B0F18430D
:1040A0008000608708780007000FA07202E0607A45
:1040B000002805D0002A03D0E07B401CE07302E01A
:1040C000A07B401CA07300F011F900202070322169
:1040D0000248FCF78AF8F8BD20000020C402002046
:1040E0006D61635F727820312000000010B52321DC
:1040F000052049010007FCF73DFD10BD00B587B064
:1041000014216846FCF771F80A48C26A01210A4383
:10411000C262C06A029108400590232040010090CD
:1041200000200190052069460007FCF7B5FD07B0A7
:1041300000BD000000100240F8B51D4E002535708E
:1041400075700620FDF7E4F87D200001009004233F
:10415000324650211748FCF719FF0620FDF7E8F812
:10416000154CE56030788006800CE0607078E1687E
:104170000843E060E06811494018E060E0681049D9
:104180004843E0600F49E068FBF7D0FFE060E0687B
:104190000D49884200D1E560E0680C494843E06081
:1041A0007D21C900E068FBF7C1FFE060F8BD0000B9
:1041B000F6020020C0010020800000209AF9FFFFD5
:1041C00010270000FEFF0100837F0000890B000024
:1041D0007CB50620FDF79CF810232F4A1946A6202F
:1041E000FFF714FB0620FDF7A3F82B4C2B4D20788E
:1041F00061780002014329842E46E078203EB075A4
:104200002079F0214843688460798000A884A079EF
:104210008000E884E07980002885207A617A0002B5
:104220000143E985A07AE17A000201432986207BD7
:104230000102607B08438000A885A07B0102E07B2F
:104240000843800068850620FDF762F801232246B6
:104250002021A620FFF7DAFA2078552817D1002070
:104260002883707169460870487001236A462021CE
:10427000A620FFF7F5FA01236A460521A620FFF7DD
:10428000EFFA02236A460C21A620FFF7E9FA06207E
:10429000FDF74EF87CBD0000F60200204000002033
:1042A00010B50620FDF734F80A230E4A3421A62063
:1042B000FFF7ACFA0620FDF73BF80A48017843788F
:1042C0000A02094913434B800279437912021343CE
:1042D0000B80017A044A0902407A403A0843D087A9
:1042E00010BD0000F60200204000002010B508A01C
:1042F000FFF7E2FAFCF712F90AA0FFF7DDFAFCF784
:104300000DF90BA0FFF7D8FAFCF708F910BD000073
:10431000726164696F207365742077647420300D56
:104320000A0000006D61632070617573650D0A00FD
:10433000726164696F20727820300D0A00000000FD
:10434000FEB5914D012000246873FFF7E3FD2E4672
:104350004036308C010B02916A6F0707535C294687
:10436000BC31CB7603051B0F0193D35C0B7703069F
:104370001B0F0093D35C4B773F0FD05D88770846C7
:10438000FFF79AFAFCF7CAF80299686F425C29466F
:10439000A1310A75019BC25C4A75009BC25C8A759B
:1043A000C05DC8750846FFF787FAFCF7B7F877A035
:1043B000FFF782FAFCF7C2F8FCF7C0F82F46203767
:1043C0007878002800D001243878002801D0022015
:1043D0000443E87F002801D004200443B878002873
:1043E00001D008200443F878002801D010200443AD
:1043F000387A002801D0202004433879002801D0E1
:1044000040200443604920094D6F295C5E48DE303E
:10441000C1732107090F695C017401465E3949685F
:1044200089B20A0BAA5CC2740A05120FAA5C027553
:104430000A06120FAA5C09074274090F695C8174AD
:1044400001465E398968504C89B20A0BAA5CC27574
:104450000A05120FAA5C02760A06120FAA5C090767
:104460004275090F695C8175318B7A790B0BEB5CB6
:10447000C3760B051B0FEB5C03770B061B0FEB5C86
:1044800009074376090F695C81761109695C4177F8
:104490001107090F695C8177718EFE34C9B20A0970
:1044A000AA5CC2770807000F285C207020467E387F
:1044B0000A210069FBF73AFE3849884207D2FF21FA
:1044C0009131884201D9401A02E0002000E0FF202B
:1044D000C0B20109695C00076170000F285CA07020
:1044E0002948DE30FFF7E8F9FCF728F8FCF726F852
:1044F000FCF724F8FCF722F8FCF720F828A0FFF7D7
:10450000DBF9FCF71BF8FCF719F8FCF717F8FCF7D8
:1045100015F800251C483D704573C078082802D066
:104520004B20000100E06420174CB08120782077F8
:1045300015E0A07F401CA0771C48FEF74FF8FEF75F
:10454000A9FC114901222D311848FEF7FBF9FBF7B0
:10455000F5FFFFF7A1F9FBF7F1FFFBF7EFFF14A061
:10456000FFF7AAF9FBF7EAFF20786077207F617FE9
:104570008842DED0FFF7BAFE0C4825703221943015
:10458000FBF733FEFEBD0000000000206D616320DC
:104590006A6F696E206162700D0A00008F02000070
:1045A0006D616320736176650D0A000030020020A2
:1045B0006D616320676574207278320D0A00000017
:1045C000F8B5314E0025F41FFD3C606F405DB074BE
:1045D0002D48FFF771F9FBF7A1FF6D1CEDB20A2D15
:1045E000F3D3294D01271A35606F0026C05DA874EA
:1045F000606F805DE87424481A30FFF75DF9FBF7BF
:104600008DFF761CF6B20A2EF2D37F1CFFB2042F68
:10461000EAD30526606F0027805DA874606FC05DD7
:10462000E87419481A30FFF747F9FBF777FF7F1C4A
:10463000FFB20A2FF2D3761CF6B2072EEAD3124E3F
:1046400000253536606F405DF0740F483530FFF758
:1046500033F9FBF763FF6D1CEDB2082DF2D30BA00D
:10466000FFF72AF9FBF75AFF0FA0FFF725F9FBF731
:1046700055FF14A0FFF720F9FBF750FF18A0FFF734
:104680001BF9FBF74BFFF8BD040100206D616320AF
:104690007365742063682073746174757320343893
:1046A000206F66660D0A00006D61632073657420DB
:1046B000636820737461747573203439206F666683
:1046C0000D0A00006D6163207365742063682073B8
:1046D0007461747573203730206F66660D0A0000B0
:1046E0006D616320736574206368207374617475F1
:1046F00073203731206F66660D0A000003490820D9
:10470000C8700248002140308181704700000020BD
:1047100010B50B48FA21C08F48438900FBF706FD0E
:10472000014600220748FDF741FA0748816B020461
:1047300011438163FCF714FEFCF70AFE10BD000074
:10474000000000200C020020001002407CB5184D33
:1047500001246C76FBF7F2FE2846803041697D2209
:104760005201914222D94169124A91421ED24069B6
:10477000294620310A7C1049002A02D0012A03D0A0
:1047800007E00D4A3C3A01E00B4A82325043FBF706
:10479000CDFC020A69460A70487002236A46342139
:1047A000A620FFF75DF8FBF7B9FE7CBD6C75FEE750
:1047B000000000208813000010270000F0B585B02D
:1047C00014216846FBF711FD0024202000900520ED
:1047D00027460194694602940007FCF75DFAFBF74F
:1047E0009DFE5A4D5A4EAF82052020210007FCF74E
:1047F0000FFB002800D00124A88A401C80B2A882A8
:10480000B042F1D30120012C6BD02021052400916E
:1048100002902407019769462046FCF73DFAFBF712
:104820007DFE402000900197694602972046FCF7E4
:1048300033FAFBF773FE0024AF8205204021000706
:10484000FCF7E6FA002800D00124A88A401C80B2B8
:10485000A882B042F1D3012C47D040200090012023
:1048600002900520019769460007FCF715FAFBF74F
:1048700055FE012080020090052000240197694622
:1048800002970007FCF708FAFBF748FEAF82012108
:10489000052089020007FCF7BBFA002800D001249C
:1048A000A88A401C80B2A882B042F0D3012C21D04B
:1048B00001208002009001200290052001976946A6
:1048C0000007FCF7E9F9FBF729FEAF820024052772
:1048D0003F0720213846FCF79BFA00280FD0022022
:1048E0000EE01A4940394875FEE718490120403961
:1048F0004875FEE71549012040394875FEE701205B
:10490000044340213846FCF783FA002801D00820F0
:1049100000E004200443012189023846FCF778FABC
:10492000002801D0202000E010200443A88A401C69
:1049300080B2A882B042CCD33F2C04D003490120DE
:1049400040394875FEE705B0F0BD0000400000208A
:10495000520E00001CB500206946324C08702079C8
:10496000002801D0012008702E48203881790029C4
:1049700005D06A461178022211436A4611704179C6
:10498000002905D06A461178042211436A46117045
:104990000079002805D0694608780821084369464F
:1049A0000870207A002805D069460878102108434D
:1049B00069460870A079002805D06946087840212A
:1049C000084369460870E079002805D069460878F0
:1049D0002021084369460870124A69462032508EE9
:1049E0004870104640304368CB7041680B0A6946F6
:1049F0008B708368CB7180680823000A8871108BE4
:104A00004871000A08716A461946A620FEF728FF79
:104A100060796946087001236A460521A620FEF7E1
:104A20001FFF1CBD200000201FB523A00FC86C462F
:104A30000FC410236A461946A620FEF711FFFBF7A4
:104A40006DFD55216846017001236A462021A6208C
:104A5000FEF706FFFBF762FD01236A463021A62020
:104A6000FEF7FEFEFBF75AFD112168460170942106
:104A7000417002236A463421A620FEF7F1FEFBF7BF
:104A80004DFD1321684601708821417002236A465A
:104A90003821A620FEF7E4FEFBF740FD0921684619
:104AA00001706D21417002236A463C21A620FEF769
:104AB000D7FEFBF733FD1FBD000100013C3C0F3C5E
:104AC000000000000078003C000000000000000032
:104AD0000102030406070809030406080C10182045
:104AE00030000000000102030400000030313233C6
:104AF00034353637383941424344454600000000DA
:104B0000204B00080000002064010000980300080A
:104B1000984B0008640100202C0600009436000821
:104B2000011602270107306D098813941113EC4A0E
:104B300082080B1D80516C48126D6163207365748F
:104B40002064657661646472203001AC390D0A1B03
:104B5000680D65756920323034333638353408597C
:104B600022680B747820756E636E6620333CB90141
:104B7000994808101363682073746174757320304A
:104B8000206F66661A0A18311B1A341B1A6E1A1126
:084B900029D29204122000005A
:04000005080000C12E
:00000001FF
